:100000000C943E001895000018950000189500000B
:10001000189500001895000018950000189500002C
:10002000189500001895000018950000189500001C
:10003000189500001895000018950000189500000C
:1000400018950000189500001895000018950000FC
:1000500018950000189500001895000018950000EC
:1000600018950000189500001895000018950000DC
:100070001895000018950000189500008FEF8DBFAF
:10008000C8EDE0EC4E2E84E08EBFD4E0F4E05F2EAD
:10009000A89584B7082E877F84BF88E1992780932D
:1000A000600090936000EEEFF3E0A0E0B1E08827FD
:1000B0008D933197E9F787E18093C40080E08093C6
:1000C000C50088E18093C10066240D9A0C9A0B9AB2
:1000D0000A9A159A88EC90E00E948C001598149A60
:1000E00088EC90E00E948C001498139A88EC90E0C1
:1000F0000E948C001398129A88EC90E00E948C0069
:1001000012980C9469003197F1F70895689462F899
:100110000895E89462F80895EF93FF93EE27E82B93
:10012000E92B31F0E3E3F7E03197F1F70197D1F7ED
:06013000FF91EF9108951C
:00000001FF
